:100A4000012100012000010800010900011B000133
:100A50000A00012200011C00011D00100B3738396B
:0D0A60002F3435362A3132332D63303D2BD3
:0F0ACD00C2B0C2B1D2B2C2B27F017E00020A8FA4
:0F0ADC00D2B0C2B1D2B2C2B27F017E00020A8F85
:10080000120AAF75A0FFE4F580AFA053070FBF0F2A
:10081000F57F017E00120A8FAFA053070FEF640F20
:1008200060EF7580FEAFA053070FEF640F6005E423
:10083000F523802F7580FDAFA053070FEF640F6085
:1008400005752301801D7580FBAFA053070FEF6472
:100850000F6005752302800B7580F7AFA053070F5B
:10086000752303BF0E0AE52325E025E0240B802035
:10087000BF0D0AE52325E025E0240C8013E523BF06
:100880000B0825E025E0240D800625E025E0240E58
:10089000F8E6F509E509B4630B120AAFE4F50AF5C9
:1008A00022020803850990120ADCE509B43D03120F
:1008B0000A6EE509B42B028013E509B42D02800C01
:1008C000E509B42A028005E509B42F08752201F56F
:1008D0001B020803E50964306035E5096431602FC7
:1008E000E50964326029E50964336023E50964346D
:1008F000601DE50964356017E50964366011E50996
:100900006437600BE50964386005E509B439020510
:100910000AE50AB4010DE5227009120B25751E0FB8
:10092000020803E50AB40210E522700CE509540F31
:10093000F51E120AEB020803E50AB40206E522647A
:1009400001600AE50AB4030BE522B40106120B2E7E
:10095000020803E50AB40306E52264016012E50A11
:1009600064046003020803E52264016003020803D3
:0C097000E509540FF51D120AF8020803F7
:090B2500E509540FF520F51F222B
:0D0AEB00E52075F00AA4F520251EF51F2258
:090B2E00E509540FF521F51C2224
:0D0AF800E52175F064A4F521251DF51C22F3
:100A6E00E51BB42B03020B37E51BB42D03020B1B46
:100A7E00E51BB42A03020B05E51BB42F03120B1062
:010A8E002245
:090B3700E51F251CF508020A085F
:0A0B1B00C3E51F951CF508020A0847
:0B0B0500E51F851CF0A4F508020A089B
:0B0B1000E51F8521F084F508020A08AB
:100A0800E50875F00A84FFE50875F00A8485F02486
:100A1800EF75F00A84FEEF75F00A8485F025430629
:100A2800308E90120ADC432530852590120ADC436B
:080A38002430852490020ADC41
:100AAF00759038120ACD759001120ACD75900C12FF
:0E0ABF000ACD759006120ACD759080020ACD00
:100A8F00E4FDFCE4FBFAC3EB9FEA9E50070BBB00AF
:0F0A9F00010A80F20DBD00010CBC04E7BDFBE4B1
:010AAE002225
:0300000002097C76
:0C097C00787FE4F6D8FD7581250209C3E0
:10098800020800E493A3F8E493A34003F68001F27D
:1009980008DFF48029E493A3F85407240CC8C33370
:1009A800C4540F4420C8834004F456800146F6DF3F
:1009B800E4800B0102040810204080900A40E47E85
:1009C800019360BCA3FF543F30E509541FFEE49334
:1009D800A360010ECF54C025E060A840B8E493A3FB
:1009E800FAE493A3F8E493A3C8C582C8CAC583CA26
:1009F800F0A3C8C582C8CAC583CADFE9DEE780BEDE
:010A6D000088
:00000001FF
